:020000040800F2
:1000000000800120A9300008FB30000809310008F9
:100010000F310008153100081B31000800000000F6
:10002000000000000000000000000000A116000811
:100030002131000800000000B11800082F3100082D
:10004000F9300008F9300008F9300008F9300008EC
:10005000F9300008F9300008750C0008990C000808
:10006000BD0C0008F9300008F9300008F93000082C
:10007000F9300008F9300008F9300008F9300008BC
:10008000F9300008F9300008F9300008F9300008AC
:10009000F9300008F9300008F9300008F93000089C
:1000A000F9300008F9300008F9300008910D000817
:1000B000F9300008ED0D0008F9300008F9300008AB
:1000C000F9300008F9300008F9300008F93000086C
:1000D000F9300008F9300008F9300008F93000085C
:1000E000E10C0008F9300008F9300008F930000888
:1000F000F9300008F9300008F9300008F93000083C
:10010000F9300008F9300008F9300008F93000082B
:10011000F9300008F9300008F9300008F93000081B
:10012000F9300008F9300008F9300008F93000080B
:10013000F9300008F9300008F9300008F9300008FB
:10014000F9300008F9300008F9300008F9300008EB
:10015000F9300008F9300008F9300008F9300008DB
:10016000F9300008F9300008F9300008F9300008CB
:10017000F9300008F9300008F9300008F9300008BB
:08018000F9300008F930000815
:1001900010B5054C237833B9044B13B10448AFF3C1
:1001A00000800123237010BD180000200000000013
:1001B000F833000808B5034B1BB103490348AFF3FC
:1001C000008008BD000000001C000020F83300087B
:1001D00081F0004102E000BF83F0004330B54FEAF8
:1001E00041044FEA430594EA050F08BF90EA020F65
:1001F0001FBF54EA000C55EA020C7FEA645C7FEAF8
:10020000655C00F0E2804FEA5454D4EB5555B8BF1A
:100210006D420CDD2C4480EA020281EA030382EA8B
:10022000000083EA010180EA020281EA0303362D1D
:1002300088BF30BD11F0004F4FEA01314FF4801CF0
:100240004CEA113102D0404261EB410113F0004F02
:100250004FEA03334CEA133302D0524263EB4303B9
:1002600094EA050F00F0A780A4F10104D5F1200E57
:100270000DDB02FA0EFC22FA05F2801841F10001B2
:1002800003FA0EF2801843FA05F359410EE0A5F186
:1002900020050EF1200E012A03FA0EFC28BF4CF0B7
:1002A000020C43FA05F3C01851EBE37101F000456D
:1002B00007D54FF0000EDCF1000C7EEB00006EEB7A
:1002C0000101B1F5801F1BD3B1F5001F0CD3490804
:1002D0005FEA30004FEA3C0C04F101044FEA44525B
:1002E00012F5800F80F09A80BCF1004F08BF5FEAE2
:1002F000500C50F1000041EB045141EA050130BDC2
:100300005FEA4C0C404141EB010111F4801FA4F164
:100310000104E9D191F0000F04BF01460020B1FAB9
:1003200081F308BF2033A3F10B03B3F120020CDAF1
:100330000C3208DD02F1140CC2F10C0201FA0CF0CF
:1003400021FA02F10CE002F11402D8BFC2F1200C34
:1003500001FA02F120FA0CFCDCBF41EA0C019040EA
:10036000E41AA2BF01EB0451294330BD6FEA040433
:100370001F3C1CDA0C340EDC04F11404C4F120021E
:1003800020FA04F001FA02F340EA030021FA04F330
:1003900045EA030130BDC4F10C04C4F1200220FA87
:1003A00002F001FA04F340EA0300294630BD21FAC5
:1003B00004F0294630BD94F0000F83F4801306BF8B
:1003C00081F480110134013D4EE77FEA645C18BF7F
:1003D0007FEA655C29D094EA050F08BF90EA020F16
:1003E00005D054EA000C04BF1946104630BD91EA0E
:1003F000030F1EBF0021002030BD5FEA545C05D111
:100400004000494128BF41F0004130BD14F580044F
:100410003CBF01F5801130BD01F0004545F0FE41C3
:1004200041F470014FF0000030BD7FEA645C1ABFF8
:10043000194610467FEA655C1CBF0B46024650EA2F
:10044000013406BF52EA033591EA030F41F400215B
:1004500030BD00BF90F0000F04BF0021704730B5E1
:100460004FF4806404F132044FF000054FF00001B6
:1004700050E700BF90F0000F04BF0021704730B577
:100480004FF4806404F1320410F0004548BF40424C
:100490004FF000013EE700BF42004FEAE2014FEAA1
:1004A00031014FEA02701FBF12F07F4393F07F4F7C
:1004B00081F06051704792F0000F14BF93F07F4FAE
:1004C000704730B54FF4607401F0004521F00041F1
:1004D00020E700BF50EA010208BF704730B54FF077
:1004E00000050AE050EA010208BF704730B511F07C
:1004F000004502D5404261EB41014FF4806404F1B4
:1005000032045FEA915C3FF4DCAE4FF003025FEA35
:10051000DC0C18BF03325FEADC0C18BF033202EBBD
:10052000DC02C2F1200300FA03FC20FA02F001FA17
:1005300003FE40EA0E0021FA02F11444C1E600BFB6
:1005400070B54FF0FF0C4CF4E06C1CEA11541DBF69
:100550001CEA135594EA0C0F95EA0C0F00F0DEF834
:100560002C4481EA030621EA4C5123EA4C5350EA19
:10057000013518BF52EA033541F4801143F480136A
:1005800038D0A0FB02CE4FF00005E1FB02E506F0FB
:100590000042E0FB03E54FF00006E1FB03569CF050
:1005A000000F18BF4EF0010EA4F1FF04B6F5007F56
:1005B00064F5407404D25FEA4E0E6D4146EB0606C8
:1005C00042EAC62141EA55514FEAC52040EA5E5051
:1005D0004FEACE2EB4F1FD0C88BFBCF5E06F1ED8FB
:1005E000BEF1004F08BF5FEA500E50F1000041EB32
:1005F000045170BD06F0004646EA010140EA0200DF
:1006000081EA0301B4EB5C04C2BFD4EB0C0541EA00
:10061000045170BD41F480114FF0000E013C00F315
:10062000AB8014F1360FDEBF002001F0004170BD39
:10063000C4F10004203C35DA0C341BDC04F1140452
:10064000C4F1200500FA05F320FA04F001FA05F2DE
:1006500040EA020001F0004221F0004110EBD370AB
:1006600021FA04F642EB06015EEA430E08BF20EAD7
:10067000D37070BDC4F10C04C4F1200500FA04F37A
:1006800020FA05F001FA04F240EA020001F000410C
:1006900010EBD37041F100015EEA430E08BF20EA7F
:1006A000D37070BDC4F1200500FA05F24EEA020EC7
:1006B00020FA04F301FA05F243EA020321FA04F0F6
:1006C00001F0004121FA04F220EA020000EBD370AD
:1006D0005EEA430E08BF20EAD37070BD94F0000FAD
:1006E0000FD101F00046400041EB010111F4801FE1
:1006F00008BF013CF7D041EA060195F0000F18BF92
:10070000704703F00046520043EB030313F4801FCD
:1007100008BF013DF7D043EA0603704794EA0C0F87
:100720000CEA135518BF95EA0C0F0CD050EA41069D
:1007300018BF52EA4306D1D181EA030101F000411A
:100740004FF0000070BD50EA410606BF1046194642
:1007500052EA430619D094EA0C0F02D150EA01364E
:1007600013D195EA0C0F05D152EA03361CBF10468F
:1007700019460AD181EA030101F0004141F0FE412E
:1007800041F470014FF0000070BD41F0FE4141F4B2
:10079000780170BD70B54FF0FF0C4CF4E06C1CEAB2
:1007A00011541DBF1CEA135594EA0C0F95EA0C0F67
:1007B00000F0A7F8A4EB050481EA030E52EA033522
:1007C0004FEA013100F088804FEA03334FF0805543
:1007D00045EA131343EA12634FEA022245EA111570
:1007E00045EA10654FEA00260EF000419D4208BF21
:1007F000964244F1FD0404F5407402D25B084FEACE
:100800003202B61A65EB03055B084FEA32024FF479
:1008100080104FF4002CB6EB020E75EB030E22BFD6
:10082000B61A754640EA0C005B084FEA3202B6EB96
:10083000020E75EB030E22BFB61A754640EA5C0045
:100840005B084FEA3202B6EB020E75EB030E22BFD5
:10085000B61A754640EA9C005B084FEA3202B6EBD6
:10086000020E75EB030E22BFB61A754640EADC0095
:1008700055EA060E18D04FEA051545EA16754FEAF7
:1008800006164FEAC30343EA52734FEAC2025FEA15
:100890001C1CC0D111F4801F0BD141EA00014FF0A4
:1008A00000004FF0004CB6E711F4801F04BF014375
:1008B0000020B4F1FD0C88BFBCF5E06F3FF6AFAE91
:1008C000B5EB030C04BFB6EB020C5FEA500C50F121
:1008D000000041EB045170BD0EF0004E4EEA1131A4
:1008E00014EB5C04C2BFD4EB0C0541EA045170BDAB
:1008F00041F480114FF0000E013C90E645EA060EEF
:100900008DE60CEA135594EA0C0F08BF95EA0C0F1C
:100910003FF43BAF94EA0C0F0AD150EA01347FF464
:1009200034AF95EA0C0F7FF425AF104619462CE73B
:1009300095EA0C0F06D152EA03353FF4FDAE10469E
:10094000194622E750EA410618BF52EA43067FF4EF
:10095000C5AE50EA41047FF40DAF52EA43057FF47F
:10096000EBAE12E74FEA4102B2F1E04324BFB3F528
:10097000001CDCF1FE5C0DD901F0004C4FEAC00216
:100980004CEA5070B2F1004F40EB830008BF20F0FA
:100990000100704711F0804F21D113F13872BCBFB4
:1009A00001F00040704741F480114FEA5252C2F109
:1009B0001802C2F1200C10FA0CF320FA02F018BF52
:1009C00040F001004FEAC1234FEAD32303FA0CFCA5
:1009D00040EA0C0023FA02F34FEA4303CCE77FEA34
:1009E000625307D150EA01331EBF4FF0FE4040F47E
:1009F0004000704701F0004040F0FE4040F400002D
:100A0000704700BF80B500AF0A4A0A4B1B6B43F02A
:100A100004031363084A084B1B6823F440731360F4
:100A2000054A054B1B6843F48073136000F006F819
:100A300000BF80BD003802400008024080B400AF13
:100A4000054A054B5B6923F01003536100BFBD46A7
:100A50005DF8047B704700BF0008024080B500AF1E
:100A60000A4A0A4B1B6B43F004031363084A084B02
:100A70001B6823F040631360054A054B1B6843F075
:100A80008063136000F006F800BF80BD00380240AC
:100A90000008024080B400AF054A054B5B6923F4AF
:100AA0000053536100BFBD465DF8047B704700BF33
:100AB0000008024080B582B000AF0346FB710F4AC8
:100AC0000E4B1B6B43F0040313630D4A0C4B1B6866
:100AD00023F07F7323F47F331360094A084B1B68AC
:100AE00043F0AA7343F4AA331360FB79184600F06D
:100AF00009F800BF0837BD4680BD00BF003802407E
:100B00000008024080B483B000AF0346FB71074980
:100B1000064B5B69FA795201D24313404B6100BF27
:100B20000C37BD465DF8047B704700BF00080240EB
:100B300080B483B000AF0346FB71FB79042B00F255
:100B40008A8001A252F823F05D0B0008C10B000857
:100B50008F0B0008F30B0008250C0008414A414B9D
:100B60001B6B43F0080313633F4A3F4B1B6823F0A2
:100B7000300313603C4A3C4BDB6823F03003D36006
:100B8000394A394BDB6843F01003D36064E0354ADF
:100B9000344B1B6B43F001031363344A334B1B6824
:100BA00023F040731360314A304BDB6823F040730D
:100BB000D3602E4A2D4BDB6843F08073D3604BE04B
:100BC000284A284B1B6B43F001031363274A274B2A
:100BD0001B6823F440031360244A244BDB6823F48E
:100BE0004003D360214A214BDB6843F48003D36088
:100BF00032E01C4A1B4B1B6B43F0040313631C4A7B
:100C00001B4B1B6823F00C031360194A184BDB685D
:100C100023F00C03D360164A154BDB6843F0040342
:100C2000D36019E00F4A0F4B1B6B43F004031363AF
:100C30000F4A0F4B1B6823F0030313600C4A0C4B45
:100C4000DB6823F00303D360094A094BDB6843F0F8
:100C50000103D36000E000BF00BF0C37BD465DF864
:100C6000047B704700380240000C02400000024044
:100C70000008024080B500AF054A054B5B6943F0B0
:100C800001035361034B1B68984700BF80BD00BF41
:100C9000003C0140003E002080B500AF054A054BF6
:100CA0005B6943F002035361034B1B68984700BF25
:100CB00080BD00BF003C0140F43D002080B500AF86
:100CC000054A054B5B6943F004035361034B1B6802
:100CD000984700BF80BD00BF003C0140F83D0020A8
:100CE00080B500AF104B5B6903F40063002B09D0A3
:100CF0000D4A0D4B5B6943F4006353610B4B1B685A
:100D000098470EE0084B5B6903F48053002B08D032
:100D1000054A054B5B6943F480535361044B1B68E0
:100D2000984700BF80BD00BF003C0140FC3D002053
:100D3000F03D002080B400AF124A124B1B6843F014
:100D4000010313600F4B00229A600E4A0D4B1B6883
:100D500023F0A16323F4803313600A4B0A4A5A60DC
:100D6000084B0A4AC3F88420064A064B1B6823F442
:100D700080231360034B0022DA6000BFBD465DF89C
:100D8000047B7047003802401030002400300020FF
:100D900080B400AF124A124B1B8A9BB223F00203AD
:100DA0009BB213820F4B1B78DBB2002B06D10C4B8E
:100DB00000225A620B4B01221A700BE0094B1B7880
:100DC000DBB2012B06D1064B5B6B074A1360054B68
:100DD00000221A7000BFBD465DF8047B704700BF5B
:100DE00000000140380000203400002080B500AF32
:100DF000094B1B8A9BB203F00103002B0AD0064A61
:100E0000054B1B8A9BB223F001039BB21382034B59
:100E10001B68984700BF80BD00040040043E0020CE
:100E2000B0B586B000AFF860B960FB68874A9342FE
:100E30003CD1874A864B1B6B43F001031363854A01
:100E4000844B1B6823F030031360824A814B1B687C
:100E500023F0C00313607F4A7E4B1B6843F02003DE
:100E600013607C4A7B4B1B6843F080031360794A14
:100E7000784B1B6A23F470631362764A754B1B6AC6
:100E800023F470431362734A724B1B6A43F4E063AA
:100E90001362704A6F4B1B6A43F4E04313626C4A5F
:100EA0006B4B1B6C43F40033136480E0FB686A4AAD
:100EB00093423CD1664A664B1B6B43F001031363BC
:100EC000644A644B1B6823F440231360614A614BFE
:100ED0001B6823F4401313605E4A5E4B1B6843F4A7
:100EE000002313605B4A5B4B1B6843F400131360E1
:100EF000584A584B5B6A23F0F0035362554A554BEE
:100F00005B6A23F470635362524A524B5B6A43F04C
:100F1000700353624F4A4F4B5B6A43F4E063536282
:100F20004B4A4B4B5B6C43F0100353643FE0FB6850
:100F30004A4A93423BD1464A454B1B6B43F004035C
:100F40001363444A434B1B6823F440531360414AE4
:100F5000404B1B6823F4404313603E4A3D4B1B68E3
:100F600043F4005313603B4A3A4B1B6843F400437D
:100F70001360384A374B1B6A23F070631362354A9B
:100F8000344B1B6A23F070431362324A314B1B6AA5
:100F900043F0006313622F4A2E4B1B6A43F0004359
:100FA00013622B4A2A4B5B6C43F0200353642C4B97
:100FB0001B681846FFF74EFA04460D46B868FFF75F
:100FC00049FA4FF00002274BFFF7BAFA02460B46E8
:100FD00020462946FFF7DEFB03460C46184621460D
:100FE000FFF7C0FC03467B61D7ED057AFCEEE77A9C
:100FF000C7ED017ABB887B827B8A07EE903AF8EED8
:10100000E77A97ED057A77EE677AB3EE007A67EEC6
:10101000877AFCEEE77AC7ED017A3B797B747B8AAD
:101020001B019AB27B7C9BB213449AB2FB681A8173
:10103000FB689B899BB243F4005343F00C039AB2C4
:10104000FB689A8100BF1837BD46B0BD0044004020
:10105000003802400000024000100140001401402E
:10106000040000200000304080B483B000AF7860FE
:101070000B46FB7000BF7B681B889BB203F08003AC
:10108000002BF8D0FB789AB27B689A8000BF0C37AF
:10109000BD465DF8047B704780B584B000AF7860D2
:1010A00039600023FB600AE03A68FB6813441B7850
:1010B00019467868FFF7D8FFFB680133FB603A6890
:1010C000FB6813441B78002BEED100BF1037BD46E0
:1010D00080BD80B500AF01F0B5FD0346012B01D006
:1010E00000F01AFC00BF80BD80B58AB000AF786008
:1010F0000023FB6101F008FA574B1B68002B01D15C
:1011000000F00CF9554B1A687B681340002B40F037
:101110008C807B68002B1CD008227B6813447B608A
:101120007B6803F00703002B13D07B6823F00703D1
:1011300008337B607B6803F00703002B09D04FF076
:10114000500383F31188BFF36F8FBFF34F8F7B6121
:10115000FEE77B68002B68D0414B1B687A689A4297
:1011600063D8404B3B623F4B1B687B6204E07B6A69
:101170003B627B6A1B687B627B6A5A687B689A4227
:1011800003D27B6A1B68002BF1D1334B1B687A6A50
:101190009A424AD03B6A1B6808221344FB617B6A6F
:1011A0001A683B6A1A607B6A5A687B68D21A0823FD
:1011B0005B009A421ED97A6A7B681344BB61BB69A3
:1011C00003F00703002B09D04FF0500383F311887D
:1011D000BFF36F8FBFF34F8F3B61FEE77B6A5A68A7
:1011E0007B68D21ABB695A607B6A7A685A60B869B0
:1011F00000F0F6F81A4B1A687B6A5B68D31A184A33
:101200001360174B1A68184B1B689A4203D2144B91
:101210001B68154A13607B6A5A68104B1B681A4397
:101220007B6A5A607B6A00221A6001F07BF9FB69D5
:1012300003F00703002B09D04FF0500383F311880C
:10124000BFF36F8FBFF34F8FFB60FEE7FB6918465C
:101250002837BD4680BD00BF443C0020503C0020E4
:10126000483C00203C3C00204C3C002080B586B02F
:1012700000AF78607B687B617B68002B46D00823D9
:101280005B427A6913447B617B693B613B695A68C5
:10129000204B1B681340002B09D14FF0500383F300
:1012A0001188BFF36F8FBFF34F8FFB60FEE73B6981
:1012B0001B68002B09D04FF0500383F31188BFF354
:1012C0006F8FBFF34F8FBB60FEE73B695A68114BCE
:1012D0001B681340002B19D03B691B68002B15D1EC
:1012E0003B695A680B4B1B68DB431A403B695A60E9
:1012F00001F00AF93B695A68074B1B681344064A18
:101300001360386900F06CF801F00CF900BF183771
:10131000BD4680BD503C0020483C002080B485B0D4
:1013200000AF4FF47053BB60274BFB60FB6803F0CA
:101330000703002B0CD0FB680733FB60FB6823F02E
:101340000703FB60BA68FB68D31A1F4A1344BB60EB
:10135000FB687B601D4A7B6813601C4B00225A604F
:101360007A68BB681344FB600822FB689B1AFB6029
:10137000FB6823F00703FB60FB68154A1360144BFE
:101380001B6800225A60124B1B6800221A607B689F
:101390003B603B68FA68D21A3B685A600C4B1A688B
:1013A0003B681A603B685B680A4A13603B685B688D
:1013B000094A1360094B4FF000421A6000BF14370E
:1013C000BD465DF8047B70473C0000203C3C00209B
:1013D000443C00204C3C0020483C0020503C002075
:1013E00080B485B000AF7860284BFB6002E0FB68FA
:1013F0001B68FB60FB681A687B689A42F7D3FB683E
:10140000BB60FB685B68BA681A447B689A4208D183
:10141000FB685A687B685B681A44FB685A60FB6823
:101420007B607B68BB607B685B68BA681A44FB685A
:101430001B689A4218D1FB681A68154B1B689A42C0
:101440000DD07B685A68FB681B685B681A447B6830
:101450005A60FB681B681A687B681A6008E00C4BCE
:101460001A687B681A6003E0FB681A687B681A6078
:10147000FA687B689A4202D0FB687A681A6000BFFB
:101480001437BD465DF8047B704700BF3C3C00202C
:10149000443C002080B483B000AF78607B6803F1E7
:1014A00008027B685A607B684FF0FF329A607B6865
:1014B00003F108027B68DA607B6803F108027B684D
:1014C0001A617B6800221A6000BF0C37BD465DF8C8
:1014D000047B704780B483B000AF78607B680022E3
:1014E0001A6100BF0C37BD465DF8047B704780B4BD
:1014F00085B000AF786039607B685B68FB603B68F3
:10150000FA685A60FB689A683B689A60FB689B6857
:101510003A685A60FB683A689A603B687A681A6170
:101520007B681B685A1C7B681A6000BF1437BD4675
:101530005DF8047B704780B485B000AF7860396097
:101540003B681B68BB60BB68B3F1FF3F03D17B689E
:101550001B69FB600CE07B680833FB6002E0FB6802
:101560005B68FB60FB685B681A68BB689A42F6D9E7
:10157000FB685A683B685A603B685B683A689A60E7
:101580003B68FA689A60FB683A685A603B687A6818
:101590001A617B681B685A1C7B681A6000BF14378D
:1015A000BD465DF8047B704780B485B000AF7860BD
:1015B0007B681B69FB607B685B687A6892689A60ED
:1015C0007B689B687A6852685A60FB685A687B68D7
:1015D0009A4203D17B689A68FB685A607B68002254
:1015E0001A61FB681B685A1EFB681A60FB681B685F
:1015F00018461437BD465DF8047B704780B485B04B
:1016000000AFF860B9607A60FB68043BFB60FB6880
:101610004FF080721A60FB68043BFB60BB6823F0EC
:101620000102FB681A60FB68043BFB600C4AFB6824
:101630001A60FB68143BFB607A68FB681A60FB6801
:10164000043BFB60FB686FF002021A60FB68203B02
:10165000FB60FB6818461437BD465DF8047B704795
:101660006516000880B483B000AF0C4B1B68B3F163
:10167000FF3F09D04FF0500383F31188BFF36F8F02
:10168000BFF34F8F7B60FEE74FF0500383F3118869
:10169000BFF36F8FBFF34F8F3B60FEE7000000206A
:1016A000074B19680868B0E8F04F80F30988BFF36A
:1016B0006F8F4FF0000080F311887047AFF3008008
:1016C0005C3C002000BF00BF06480068006880F353
:1016D000088862B661B6BFF34F8FBFF36F8F00DF2C
:1016E00000BF00BF08ED00E080B586B000AF3B4B07
:1016F0001B683B4A934209D14FF0500383F3118892
:10170000BFF36F8FBFF34F8F3B61FEE7334B1B6817
:10171000344A934209D14FF0500383F31188BFF349
:101720006F8FBFF34F8FFB60FEE72F4B7B617B69B1
:101730001B78DBB2BB607B69FF221A707B691B7868
:10174000DBB2FB71FB79DBB203F05003DAB2274B5B
:101750001A70274B07221A6009E0254B1B68013BD2
:10176000234A1360FB79DBB25B00DBB2FB71FB79D0
:10177000DBB203F08003802BEFD01D4B1B681B02F4
:101780001B4A13601A4B1B6803F4E063184A13608A
:10179000BB68DAB27B691A70164A164B1B6843F4B1
:1017A00070031360134A134B1B6843F070431360BC
:1017B00000F0D2F8104B00221A6000F0E9F80F4A4E
:1017C0000E4B1B6843F040431360FFF77DFFFFF7AC
:1017D00049FF002318461837BD4680BD00ED00E0E4
:1017E00071C20F4170C20F4100E400E0543C002080
:1017F000583C002020ED00E00000002034EF00E025
:1018000080B483B000AF4FF0500383F31188BFF36F
:101810006F8FBFF34F8F7B600E4B1B6801330D4AF8
:1018200013600C4B1B68012B0ED10B4B1B68DBB2FA
:10183000002B09D04FF0500383F31188BFF36F8F53
:10184000BFF34F8F3B60FEE700BF0C37BD465DF82E
:10185000047B70470000002004ED00E080B483B0FA
:1018600000AF114B1B68002B09D14FF0500383F3DD
:101870001188BFF36F8FBFF34F8F7B60FEE70A4B7A
:101880001B68013B084A1360074B1B68002B04D1FF
:1018900000233B603B6883F3118800BF0C37BD46D3
:1018A0005DF8047B704700BF0000002000000000CE
:1018B000EFF30980BFF36F8F154B1A681EF0100FFE
:1018C00008BF20ED108A20E9F04F10604DF8043D6C
:1018D0004FF0500080F31188BFF34F8FBFF36F8F2D
:1018E00000F078FF4FF0000080F3118808BC196801
:1018F0000868B0E8F04F1EF0100F08BFB0EC108A77
:1019000080F30988BFF36F8F704700BFAFF300808B
:101910005C3C002000BF00BF80B582B000AF4FF03C
:10192000500383F31188BFF36F8FBFF34F8F7B603A
:1019300000F094FE0346002B03D0064B4FF080527C
:101940001A6000233B603B6883F3118800BF0837AF
:10195000BD4680BD04ED00E080B400AF084A094BED
:101960001B680949A1FB03139B09013B1360074B4B
:1019700007221A6000BFBD465DF8047B704700BFB8
:1019800014E000E004000020D34D621010E000E0FD
:10199000DFF80C00016841F470010160704700BF7E
:1019A00088ED00E080B584B000AF786039607B6876
:1019B000FB60FB68002B09D14FF0500383F31188C3
:1019C000BFF36F8FBFF34F8FBB60FEE7FFF718FFCA
:1019D000FB681A68FB68DB6BF968096C01FB03F3B1
:1019E0001A44FB685A60FB6800229A63FB681A6815
:1019F000FB689A60FB681A68FB68DB6B013BF9685F
:101A0000096C01FB03F31A44FB68DA60FB68FF22F0
:101A100083F84420FB68FF2283F845203B68002BB5
:101A200014D1FB681B69002B1AD0FB6810331846D1
:101A300000F04EFF0346002B12D00D4B4FF08052AA
:101A40001A60BFF34F8FBFF36F8F09E0FB6810334D
:101A50001846FFF71FFDFB6824331846FFF71AFDF1
:101A6000FFF7FCFE012318461037BD4680BD00BFBE
:101A700004ED00E080B58AB002AFF860B9601346AB
:101A8000FB71FB68002B09D14FF0500383F31188E1
:101A9000BFF36F8FBFF34F8F3B61FEE7BB68002B37
:101AA00002D10023FB6104E0FB68BA6802FB03F388
:101AB000FB61FB6948331846FFF716FBB861BB6949
:101AC000002B0BD0BB6948337B61FA79BB6900936B
:101AD00013467A69B968F86800F005F8BB691846DA
:101AE0002037BD4680BD80B584B000AFF860B960D6
:101AF0007A60FB70BB68002B03D1BB69BA691A60BE
:101B000002E0BB697A681A60BB69FA68DA63BB698C
:101B1000BA681A640121B869FFF744FF00BF1037A3
:101B2000BD4680BD80B582B000AF78607B68002B79
:101B30000ED07B6800225A607B6800221A607B68A6
:101B40000022DA60002300220021786800F01CF8EF
:101B500000BF0837BD4680BD80B586B000AF0346E4
:101B6000FB7101237B6100233B61FB791A463969D4
:101B70007869FFF77FFFF860F868FFF7D3FFFB682D
:101B800018461837BD4680BD80B58EB000AFF860EE
:101B9000B9607A603B6000237B63FB683B633B6B0F
:101BA000002B09D14FF0500383F31188BFF36F8FDF
:101BB000BFF34F8FBB62FEE7BB68002B03D13B6BCB
:101BC0001B6C002B01D1012300E00023002B09D165
:101BD0004FF0500383F31188BFF36F8FBFF34F8F24
:101BE0007B62FEE73B68022B03D13B6BDB6B012B77
:101BF00001D1012300E00023002B09D14FF0500355
:101C000083F31188BFF36F8FBFF34F8F3B62FEE703
:101C100001F018F80346002B02D17B68002B01D19C
:101C2000012300E00023002B09D14FF0500383F380
:101C30001188BFF36F8FBFF34F8FFB61FEE7FFF794
:101C4000DFFD3B6B9A6B3B6BDB6B9A4202D33B68CD
:101C5000022B29D13A68B968386B00F0A1F9F86213
:101C60003B6B5B6A002B10D03B6B2433184600F0B3
:101C70002FFE0346002B13D03F4B4FF080521A60CB
:101C8000BFF34F8FBFF36F8F0AE0FB6A002B07D0C3
:101C9000394B4FF080521A60BFF34F8FBFF36F8FF5
:101CA000FFF7DCFD012363E07B68002B03D1FFF726
:101CB000D5FD00235CE07B6B002B06D107F11403FC
:101CC000184600F067FE01237B63FFF7C7FD00F0B5
:101CD0001BFCFFF795FD3B6B93F844305BB2B3F10F
:101CE000FF3F03D13B6B002283F844203B6B93F80A
:101CF00045305BB2B3F1FF3F03D13B6B002283F869
:101D00004520FFF7ABFD3A1D07F1140311461846B5
:101D100000F064FE0346002B24D1386B00F038FA43
:101D20000346002B18D03B6B10337A6811461846D7
:101D300000F0AAFD386B00F0C3F900F0F3FB034696
:101D4000002B7FF47CAF0C4B4FF080521A60BFF336
:101D50004F8FBFF36F8F72E7386B00F0B1F900F06F
:101D6000E1FB6CE7386B00F0ABF900F0DBFB002324
:101D700018463837BD4680BD04ED00E080B58EB012
:101D800000AFF860B9607A603B6000237B63FB685A
:101D90003B633B6B002B09D14FF0500383F3118859
:101DA000BFF36F8FBFF34F8F7B62FEE7BB68002BE3
:101DB00003D13B6B1B6C002B01D1012300E00023FE
:101DC000002B09D14FF0500383F31188BFF36F8FBD
:101DD000BFF34F8F3B62FEE700F034FF0346002B5A
:101DE00002D17B68002B01D1012300E00023002BEE
:101DF00009D14FF0500383F31188BFF36F8FBFF306
:101E00004F8FFB61FEE7FFF7FBFC3B6B9B6BFB62BD
:101E1000FB6A002B46D03B6BDB68BB62B968386B52
:101E200000F028F93B68002B21D1FB6A5A1E3B6B5E
:101E30009A633B6B1B68002B04D101F01BF8024630
:101E40003B6B5A603B6B1B69002B27D03B6B1033FD
:101E5000184600F03DFD0346002B1FD04F4B4FF0BE
:101E600080521A60BFF34F8FBFF36F8F16E03B6B4A
:101E7000BA6ADA603B6B5B6A002B0FD03B6B243392
:101E8000184600F025FD0346002B07D0434B4FF0CA
:101E900080521A60BFF34F8FBFF36F8FFFF7DEFCE6
:101EA000012377E07B68002B03D1FFF7D7FC0023E9
:101EB00070E07B6B002B06D107F11403184600F08D
:101EC00069FD01237B63FFF7C9FC00F01DFBFFF7F1
:101ED00097FC3B6B93F844305BB2B3F1FF3F03D107
:101EE0003B6B002283F844203B6B93F845305BB298
:101EF000B3F1FF3F03D13B6B002283F84520FFF78E
:101F0000ADFC3A1D07F114031146184600F066FDBA
:101F10000346002B31D1386B00F024F90346002B27
:101F200025D03B6B1B68002B08D1FFF769FC3B6B8E
:101F30005B68184600F0A4FEFFF790FC3B6B24336F
:101F40007A681146184600F09FFC386B00F0B8F82C
:101F500000F0E8FA0346002B7FF455AF0F4B4FF02B
:101F600080521A60BFF34F8FBFF36F8F4BE7386B10
:101F700000F0A6F800F0D6FA45E7386B00F0A0F8BC
:101F800000F0D0FA386B00F0EDF80346002B3FF478
:101F90003AAF002318463837BD4680BD04ED00E057
:101FA00080B586B000AFF860B9607A6000237B61CD
:101FB000FB689B6B3B61FB681B6C002B0DD1FB68C6
:101FC0001B68002B4DD1FB685B68184600F0CEFE05
:101FD0007861FB6800225A6043E07B68002B19D1CE
:101FE000FB689868FB681B6C1A46B96801F0F8F941
:101FF000FB689A68FB681B6C1A44FB689A60FB6874
:102000009A68FB685B689A422BD3FB681A68FB6886
:102010009A6026E0FB68D868FB681B6C1A46B968B2
:1020200001F0DEF9FB68DA68FB681B6C5B421A445E
:10203000FB68DA60FB68DA68FB681B689A4207D2C3
:10204000FB685A68FB681B6C5B421A44FB68DA60E9
:102050007B68022B05D13B69002B02D03B69013B19
:102060003B613B695A1CFB689A637B6918461837C9
:10207000BD4680BD80B582B000AF786039607B68B6
:102080001B6C002B18D07B68DA687B681B6C1A44C9
:102090007B68DA607B68DA687B685B689A4203D3A6
:1020A0007B681A687B68DA607B68D9687B681B6C20
:1020B0001A46386801F094F900BF0837BD4680BD64
:1020C00080B584B000AF7860FFF79AFB7B6893F827
:1020D0004530FB7311E07B685B6A002B12D07B6894
:1020E0002433184600F0F4FB0346002B01D000F027
:1020F000D3FCFB7B013BDBB2FB7397F90F30002B6A
:10210000E9DC00E000BF7B68FF2283F84520FFF791
:10211000A5FBFFF775FB7B6893F84430BB7311E0B8
:102120007B681B69002B12D07B681033184600F0C7
:10213000CFFB0346002B01D000F0AEFCBB7B013B84
:10214000DBB2BB7397F90E30002BE9DC00E000BF77
:102150007B68FF2283F84420FFF780FB00BF103725
:10216000BD4680BD80B584B000AF7860FFF748FB06
:102170007B689B6B002B02D10123FB6001E00023F5
:10218000FB60FFF76BFBFB6818461037BD4680BD50
:1021900080B584B000AF7860FFF732FB7B689A6B44
:1021A0007B68DB6B9A4202D10123FB6001E00023D4
:1021B000FB60FFF753FBFB6818461037BD4680BD38
:1021C00080B58CB004AFF860B9603B601346FB800B
:1021D000FB889B001846FEF787FF78617B69002B20
:1021E0000ED07820FEF780FFF861FB69002B03D04A
:1021F000FB697A691A6305E07869FFF737F801E04F
:102200000023FB61FB69002B13D0FA8800230393A2
:10221000FB690293FB6A0193BB6A00933B68B96850
:10222000F86800F00EF8F86900F08AF80123BB6145
:1022300002E04FF0FF33BB61BB6918462037BD4653
:1022400080BD80B588B000AFF860B9607A603B604F
:102250003B6B1A6B7B6803F18043013B9B0013448B
:10226000BB61BB6923F00703BB61BB6903F00703D4
:10227000002B09D04FF0500383F31188BFF36F8F09
:10228000BFF34F8F7B61FEE70023FB6112E0BA686A
:10229000FB69134419783A6BFB69134434330A46DB
:1022A0001A70BA68FB6913441B78002B06D0FB69CF
:1022B0000133FB61FB69312BE9D900E000BF3B6BC7
:1022C000002283F86520BB6A0B2B01D90B23BB626C
:1022D0003B6BBA6ADA623B6BBA6A9A663B6B002266
:1022E000DA663B6B04331846FFF7F4F83B6B1833A0
:1022F0001846FFF7EFF83B6B3A6B1A61BB6AC3F104
:102300000C023B6B9A613B6B3A6B5A623B6B00224F
:102310001A673B6B002283F874203A68F968B86941
:10232000FFF76CF902463B6B1A60FB6A002B02D088
:10233000FB6A3A6B1A6000BF2037BD4680BD0000C3
:1023400080B582B000AF7860FFF75AFA2A4B1B685D
:102350000133294A1360294B1B68002B09D1274AF6
:102360007B681360244B1B68012B10D100F0B8FB75
:102370000DE0234B1B68002B09D1204B1B68DA6A48
:102380007B68DB6A9A4202D81C4A7B6813601D4B4B
:102390001B6801331B4A13607B68DB6A01229A4089
:1023A000194B1B681343184A13607B68DA6A13469B
:1023B0009B0013449B00154A1A447B68043319465A
:1023C0001046FFF794F8FFF749FA0D4B1B68002BF6
:1023D0000ED00A4B1B68DA6A7B68DB6A9A4207D226
:1023E0000B4B4FF080521A60BFF34F8FBFF36F8FCC
:1023F00000BF0837BD4680BDC03D00205C3C0020CA
:10240000CC3D0020DC3D0020C83D0020603C002089
:1024100004ED00E080B584B000AF78600023FB607D
:102420007B68002B16D0134B1B68002B09D04FF094
:10243000500383F31188BFF36F8FBFF34F8FBB60DF
:10244000FEE700F061F80021786800F027FD00F059
:1024500069F8F860FB68002B07D1074B4FF08052FA
:102460001A60BFF34F8FBFF36F8F00BF1037BD46A9
:1024700080BD00BFE83D002004ED00E080B586B0DF
:1024800002AF1B4B019300230093002380221949C4
:102490001948FFF795FEF860FB68012B15D14FF046
:1024A000500383F31188BFF36F8FBFF34F8FBB606F
:1024B000124B4FF0FF321A60114B01221A60114B80
:1024C00000221A60FFF710F90DE0FB68B3F1FF3F3F
:1024D00009D14FF0500383F31188BFF36F8FBFF31F
:1024E0004F8F7B60FEE700BF1037BD4680BD00BF49
:1024F000E43D002010340008B12A0008E03D00202F
:10250000CC3D0020C43D002080B400AF044B1B68CC
:102510000133034A136000BFBD465DF8047B70477A
:10252000E83D002080B584B000AF0023FB600023AD
:10253000BB60414B1B68002B09D14FF0500383F364
:102540001188BFF36F8FBFF34F8F3B60FEE7FFF73C
:1025500057F9394B1B68013B374A1360364B1B68F0
:10256000002B61D1354B1B68002B5DD02EE0344B26
:10257000DB68DB68FB60FB6818331846FFF714F86C
:10258000FB6804331846FFF70FF8FB68DB6A01228B
:102590009A402C4B1B6813432A4A1360FB68DA6A83
:1025A00013469B0013449B00274A1A44FB680433DC
:1025B00019461046FEF79BFFFB68DA6A234B1B683F
:1025C000DB6A9A4202D3224B01221A601C4B1B6821
:1025D000002BCCD1FB68002B01D000F00DFB1D4B74
:1025E0001B687B607B68002B10D000F037F8034637
:1025F000002B02D0164B01221A607B68013B7B60E6
:102600007B68002BF1D1134B00221A60104B1B6822
:10261000002B09D00123BB600F4B4FF080521A6092
:10262000BFF34F8FBFF36F8FFFF718F9BB681846E2
:102630001037BD4680BD00BFE83D0020C03D0020F2
:10264000803D0020C83D0020603C00205C3C002014
:10265000D43D0020D03D002004ED00E080B586B0E0
:1026600000AF00237B61504B1B68002B40F08C8037
:102670004E4B1B6801333B614C4A3B6913603B691D
:10268000002B1FD14A4B1B681B68002B09D04FF051
:10269000500383F31188BFF36F8FBFF34F8F3B60FD
:1026A000FEE7434B1B68FB60424B1B68404A1360CC
:1026B000404AFB681360404B1B6801333E4A13607D
:1026C00000F09AFA3D4B1B683A699A424DD3384B59
:1026D0001B681B68002B01D1012300E00023002BA5
:1026E00004D0364B4FF0FF321A603EE0304B1B688F
:1026F000DB68DB68BB60BB685B687B603A697B68F2
:102700009A4203D22D4A7B6813602EE0BB680433E3
:102710001846FEF749FFBB689B6A002B04D0BB68D4
:1027200018331846FEF740FFBB68DB6A01229A4067
:10273000234B1B681343224A1360BB68DA6A1346B3
:102740009B0013449B001F4A1A44BB68043319467C
:102750001046FEF7CCFEBB68DA6A1B4B1B68DB6ACF
:102760009A42B4D301237B61B1E7174B1B68DA6A45
:10277000144913469B0013449B000B441B68012B18
:1027800007D901237B6104E0104B1B6801330F4A1A
:1027900013600F4B1B68002B01D001237B617B6909
:1027A00018461837BD4680BDE83D0020C43D0020D6
:1027B000783D00207C3D0020D83D0020E03D0020F9
:1027C000C83D0020603C00205C3C0020D03D002043
:1027D000D43D002080B487B000AF264B1B68002B8F
:1027E00003D0254B01221A603EE0234B00221A60E1
:1027F000224B1B68FB60FB68B3FA83F3FB72FB7A26
:10280000C3F11F037B611E497A6913469B00134481
:102810009B000B441B68002B09D14FF0500383F33E
:102820001188BFF36F8FBFF34F8F7B60FEE77A692C
:1028300013469B0013449B00114A13443B613B69C0
:102840005B685A683B695A603B695A683B69083360
:102850009A4204D13B695B685A683B695A603B699C
:102860005B68DB68074A136000BF1C37BD465DF834
:10287000047B7047E83D0020D43D0020C83D002087
:10288000603C00205C3C002080B584B000AF7860E4
:1028900039607B68002B09D14FF0500383F3118816
:1028A000BFF36F8FBFF34F8FFB60FEE7074B1B68D3
:1028B000183319467868FEF73EFE0121386800F0AB
:1028C000EDFA00BF1037BD4680BD00BF5C3C002064
:1028D00080B586B000AF78607B68DB68DB683B6101
:1028E0003B69002B09D14FF0500383F31188BFF3EC
:1028F0006F8FBFF34F8FFB60FEE73B6918331846BD
:10290000FEF752FE1D4B1B68002B1CD13B690433A4
:102910001846FEF749FE3B69DB6A01229A40184BD4
:102920001B681343164A13603B69DA6A13469B001F
:1029300013449B00134A1A443B690433194610465A
:10294000FEF7D5FD05E03B69183319460E48FEF742
:10295000CEFD3B69DA6A0D4B1B68DB6A9A4205D9EA
:1029600001237B610A4B01221A6001E000237B6195
:102970007B6918461837BD4680BD00BFE83D002082
:10298000C83D0020603C0020803D00205C3C0020D1
:10299000D43D002080B485B000AF78607B68002B08
:1029A00009D14FF0500383F31188BFF36F8FBFF34A
:1029B0004F8FFB60FEE7074B1A687B681A60064B77
:1029C0001A687B685A6000BF1437BD465DF8047B07
:1029D000704700BFD83D0020C43D002080B586B0C0
:1029E00000AF786039607B68002B09D14FF050034D
:1029F00083F31188BFF36F8FBFF34F8FFB60FEE748
:102A00003B68002B09D14FF0500383F31188BFF3CB
:102A10006F8FBFF34F8FBB60FEE7FEF7F1FE1C4BDD
:102A20001B683B613B681B68B3F1FF3F02D1002389
:102A30007B6126E07B681A68164B1B689A4207D0B8
:102A40007B685A683B699A4202D801237B6118E08F
:102A50007B685B683A69D21A3B681B689A420ED25F
:102A60003B681A687B6859683B69CB1A1A443B6813
:102A70001A607868FFF78EFF00237B6101E0012375
:102A80007B61FEF7EBFE7B6918461837BD4680BDBB
:102A9000C43D0020D83D002080B400AF034B01228C
:102AA0001A6000BFBD465DF8047B7047D43D00202E
:102AB00080B582B000AF786000F052F8064B1B681A
:102AC000012BF9D9054B4FF080521A60BFF34F8F9D
:102AD000BFF36F8FF0E700BF603C002004ED00E023
:102AE00080B582B000AF00237B600CE07A681346AB
:102AF0009B0013449B00124A13441846FEF7CAFC7D
:102B00007B6801337B607B680B2BEFD90D48FEF7A8
:102B1000C1FC0D48FEF7BEFC0C48FEF7BBFC0C48A0
:102B2000FEF7B8FC0B48FEF7B5FC0B4B054A1A60E4
:102B30000A4B054A1A6000BF0837BD4680BD00BF7A
:102B4000603C0020503D0020643D0020803D00207E
:102B5000943D0020AC3D0020783D00207C3D0020CD
:102B600080B582B000AF28E0FFF7CEFC174B1B68A2
:102B7000002B0CBF01230023DBB27B60FFF7D2FCEC
:102B80007B68002B19D1FEF73BFE104BDB68DB683E
:102B90003B603B6804331846FEF706FD0C4B1B6890
:102BA000013B0B4A13600B4B1B68013B094A136046
:102BB000FEF754FE386800F00FF8064B1B68002B38
:102BC000D2D100BF0837BD4680BD00BF943D002074
:102BD000C03D0020A83D002080B582B000AF7860E5
:102BE0007B681B6B1846FEF741FB7868FEF73EFBDF
:102BF00000BF0837BD4680BD80B483B000AF0F4B27
:102C00001B681B68002B01D1012300E00023002B6F
:102C100004D00B4B4FF0FF321A6008E0074B1B68E3
:102C2000DB68DB687B607B685B68054A136000BF1C
:102C30000C37BD465DF8047B704700BF783D00202F
:102C4000E03D002080B483B000AF0B4B1B68002B2D
:102C500002D101237B6008E0084B1B68002B02D1E6
:102C600002237B6001E000237B607B6818460C3701
:102C7000BD465DF8047B7047CC3D0020E83D002058
:102C800080B584B000AF78607B68FB607B68002B08
:102C900062D0FB68DA6A324B1B68DB6A9A425BD20D
:102CA000FB689B69002B06DB2D4B1B68DB6AC3F1BD
:102CB0000C02FB689A61FB685969FB68DA6A134683
:102CC0009B0013449B00274A1344994201D10123DE
:102CD00000E00023002B3AD0FB6804331846FEF7CF
:102CE00063FC0346002B15D1FB68DA6A1D491346C5
:102CF0009B0013449B000B441B68002B0AD1FB680C
:102D0000DB6A012202FA03F3DA43174B1B68134014
:102D1000154A1360124B1B68DA6AFB68DA62FB68BB
:102D2000DB6A01229A40104B1B6813430E4A136062
:102D3000FB68DA6A13469B0013449B00094A1A4455
:102D4000FB68043319461046FEF7D1FB04E0044B40
:102D50001B68DA6AFB68DA6200BF1037BD4680BDC7
:102D60005C3C0020603C0020C83D002080B586B05F
:102D700000AF78607B683B6100237B617B68002B40
:102D80006CD0394B1B683A699A4209D04FF0500316
:102D900083F31188BFF36F8FBFF34F8FFB60FEE7A4
:102DA0003B69DB6E002B09D14FF0500383F3118890
:102DB000BFF36F8FBFF34F8FBB60FEE73B69DB6EE6
:102DC0005A1E3B69DA663B69DA6A3B699B6E9A4236
:102DD00044D03B69DB6E002B40D13B69043318467D
:102DE000FEF7E2FB0346002B15D13B69DA6A1F4967
:102DF00013469B0013449B000B441B68002B0AD115
:102E00003B69DB6A012202FA03F3DA43184B1B68C1
:102E10001340174A13603B699A6E3B69DA623B695B
:102E2000DB6AC3F10C023B699A613B69DB6A0122F0
:102E30009A400F4B1B6813430D4A13603B69DA6AD3
:102E400013469B0013449B00084A1A443B69043311
:102E500019461046FEF74BFB01237B617B69184640
:102E60001837BD4680BD00BF5C3C0020603C0020A0
:102E7000C83D002080B400AF074B1B68002B04D076
:102E8000054B1B68DA6E0132DA66034B1B68184685
:102E9000BD465DF8047B70475C3C002080B584B083
:102EA00000AF78603960294B1B68FB60284B1B68BA
:102EB00004331846FEF778FB0346002B0BD1244B56
:102EC0001B68DB6A012202FA03F3DA43214B1B6819
:102ED0001340204A13607B68B3F1FF3F0AD13B687F
:102EE000002B07D01A4B1B68043319461A48FEF70B
:102EF000FEFA26E0FA687B681344BB60144B1B683B
:102F0000BA685A60BA68FB689A4209D2134B1A68C9
:102F10000F4B1B68043319461046FEF70CFB10E0FC
:102F20000F4B1A680A4B1B68043319461046FEF70C
:102F300002FB0C4B1B68BA689A4202D2094ABB6872
:102F4000136000BF1037BD4680BD00BFC43D0020E8
:102F50005C3C0020C83D0020AC3D00207C3D0020B2
:102F6000783D0020E03D002080B582B002AFFDF743
:102F7000E1FE00F019F9FF20FDF79CFDFDF742FD91
:102F80000120FDF7D5FD0220FDF7D2FD0320FDF75E
:102F9000CFFD0420FDF7CCFDFDF760FD4FF4165189
:102FA0001148FDF73DFF11490F48FEF775F8012064
:102FB000FEF7D2FD02460E4B1A6000230193012357
:102FC0000093002364220B490B48FFF7F9F8002314
:102FD0000193022300930023642208490848FFF765
:102FE000EFF8FFF74BFAFEE7004400401834000802
:102FF000EC3D002028340008053000082C3400087F
:103000005530000880B582B000AF78600D4B18686D
:1030100000234FF0FF320021FEF7B0FE0346002BE5
:10302000F4D009490948FEF737F809490748FEF77F
:1030300033F8044B1868002300220021FEF7A4FD9A
:10304000E4E700BFEC3D00203034000800440040BD
:103050004034000880B582B000AF78600E4B18682D
:1030600000234FF0FF320021FEF788FE0346002BBD
:103070000ED00A490A48FEF70FF80A490848FEF739
:103080000BF8054B1868002300220021FEF77CFD99
:103090000520FFF7BFF9E1E7EC3D002050340008C0
:1030A0000044004060340008DFF834D0002103E021
:1030B0000C4B5B58435004310B480C4B42189A425E
:1030C000F6D30B4A02E0002342F8043B094B9A4234
:1030D000F9D300F033F800F05FF9FFF745FF7047D0
:1030E0000080012078340008000000201800002033
:1030F00018000020083E0020FEE780B400AF00BFAB
:10310000BD465DF8047B704780B400AFFEE780B435
:1031100000AFFEE780B400AFFEE780B400AFFEE78B
:1031200080B400AF00BFBD465DF8047B704780B53A
:1031300000AFFDF7CEFF00BF80BD000080B500AF3F
:10314000164A164BD3F8883043F47003C2F888301F
:10315000134A134B1B6843F001031360104B00220A
:103160009A600F4A0E4B1B6823F0847323F480335C
:1031700013600B4B0B4A5A60094A094B1B6823F436
:1031800080231360064B0022DA6000F089F8034BBD
:103190004FF000629A6000BF80BD00BF00ED00E00C
:1031A000003802401030002480B487B000AF002304
:1031B0003B6100237B610223FB600023BB60022391
:1031C0007B60324B9B6803F00C033B613B69042B33
:1031D00007D0082B09D0002B3DD12D4B2D4A1A606A
:1031E0003DE02B4B2C4A1A6039E0284B5B689B0D65
:1031F00003F00103BB60254B5B6803F03F037B607A
:10320000BB68002B0CD0244A7B68B2FBF3F31F4A47
:1032100052689209C2F3080202FB03F37B610BE0E0
:103220001C4A7B68B2FBF3F3184A52689209C2F356
:10323000080202FB03F37B61144B5B681B0C03F079
:10324000030301335B00FB607A69FB68B2FBF3F3B5
:103250000F4A136003E00E4B0E4A1A6000BF0B4B7F
:103260009B681B0903F00F030C4AD35CDBB23B6184
:10327000074B1A683B6922FA03F3054A136000BF43
:103280001C37BD465DF8047B704700BF0038024024
:10329000040000200024F40040787D010800002094
:1032A00080B483B000AF00237B6000233B60364ACC
:1032B000354B1B6843F480331360334B1B6803F4B6
:1032C00000333B607B6801337B603B68002B03D19C
:1032D0007B68B3F5A06FF0D12B4B1B6803F4003370
:1032E000002B02D001233B6001E000233B603B68E0
:1032F000012B42D1244A244B1B6C43F080531364AE
:10330000224A224B1B6843F4404313601E4A1E4B63
:103310009B6893601C4A1C4B9B6843F4004393607A
:10332000194A194B9B6843F4A0539360164B184AF3
:103330005A60154A144B1B6843F08073136000BF3A
:10334000114B1B6803F00073002BF9D0114B40F2B6
:1033500005721A600C4A0C4B9B6823F003039360C0
:10336000094A094B9B6843F00203936000BF064B78
:103370009B6803F00C03082BF9D100BF0C37BD4646
:103380005DF8047B704700BF0038024000700040C9
:1033900019544007003C024070B50D4E0D4CA41B63
:1033A000A4100025A54209D10B4E0C4C00F024F8C6
:1033B000A41BA4100025A54205D170BD56F82530E8
:1033C00098470135EEE756F8253098470135F2E782
:1033D0007034000870340008703400087434000839
:1033E00010B5431E0A44914200D110BD11F8014BA3
:1033F00003F8014FF7E70000F8B500BFF8BC08BCC0
:103400009E467047F8B500BFF8BC08BC9E467047A2
:1034100049444C450000000072746F73207374615E
:103420007265640A00000000545F3100545F32008E
:103430002041542B534D53312E2E2E0A00000000F4
:103440002041542B534D53322E2E2E0A00000000E3
:103450002041542B736572766572312E2E2E0A0030
:103460002041542B736572766572322E2E2E0A001F
:04347000B50100089A
:0434740091010008BA
:10347800AAAAAAAA007A030A000000000000000015
:08348800010203040607080914
:04000005080030A916
:00000001FF
